:020000040800F2
:10000000D8060020CD0000087D0A0008550A000827
:1000100000000000000000000000000000000000E0
:10002000000000000000000000000000650E000855
:100030000000000000000000ED0B0008292000086F
:10004000FD00000800000000FD000008FD000008A1
:10005000FD00000819080008FD000008FD00000868
:1000600000000000FD000008FD000008FD00000881
:10007000ED070008FD000008FD000008000000007A
:10008000FD00000800000000000000009D200008A6
:10009000FD000008FD000008FD000008FD0000084C
:1000A000FD000008FD000008810D0008292100085E
:1000B000FD0000080448854600F086FB0048004724
:1000C00091210008C046C046D80600200C4880F3A5
:1000D00008880C480168090E0B4A914205D10B486B
:1000E0000B4901600B480C4901600C4880470C48E3
:1000F0000047FEE7FEE7FEE7FEE7FEE7FEE700005B
:10010000D8060020040000001F0000001810024064
:100110000100000000000140000000003D20000838
:10012000B500000830B50B4601460020202201240E
:1001300009E00D46D5409D4205D31D469540491B1B
:100140002546954040191546521E002DF1DC30BD64
:1001500003460B439B0703D009E008C9121F08C0E0
:10016000042AFAD203E00B780370401C491C521E8B
:10017000F9D27047D2B201E00270401C491EFBD296
:1001800070470022F6E710B513460A4604461946A2
:10019000FFF7F0FF204610BD30B5054600200346AE
:1001A00000E05B1C934205D2EC5CC85C201A01D1D4
:1001B000002CF6D130BD0000F0B507460846584087
:1001C00087B0C00F049048000E4659004008490807
:1001D000BC1A884105D2384631461E4617460B46A2
:1001E00002465800400810434DD0300D03904005A2
:1001F0005900400D490D0590401A0290402873DACD
:1002000018030121000B090508430190049800928E
:10021000002806D01146019A4942002090410091E1
:100220000190029840210A1A0199009800F0E6F91D
:1002300005460C466B4607CB00F001FAC019714128
:10024000039A0E0D0023D71756401A467A401643DC
:1002500044D0049A002A2DD0029A012A039A15DC70
:100260001205C01A914101263605001C7141D20FBA
:10027000059ED2070093019202962A46234600F07B
:10028000FEF907B0F0BD38463146FAE71605234AB5
:100290000F46B218C01AB74101210905001C4F4191
:1002A00000187F41114618187941E20F10436D196B
:1002B000644113E0E2076D0815436408C207144364
:1002C000039A01261205C01A91413605001C71419E
:1002D000CE07400830434908C01851412A462346FA
:1002E00000F0C0F9CDE7FFE7049801224000C117F4
:1002F000121A00238B4104983146C417381AA141C1
:10030000EEE730B40124E407634030BC54E730B476
:100310000124E407614030BC4EE700000000E0FF2C
:10032000F0B51FB488B00B9909980024484009998A
:10033000C00F490049080991C0070B990090490076
:1003400049080B9109990898A64608431CD00B99B7
:100350000A98084318D0099801244000420D48002B
:10036000410D099824050003000B204309900B98C8
:100370000003000B20430B9050181C49401800222A
:1003800001901446104605E0002001460DB0F0BD76
:10039000032801DA034600E003239C46C11A0AAE93
:1003A0000AE05F0008ADED5B4F00F75B7D4300277F
:1003B000AA187C41491C5B1E6145F2DD410004AB7B
:1003C0005A522104120C0A43240C401C0828DFDB7B
:1003D000019802900099704601910090059B049A43
:1003E0000799069800F04BF9D0E700000DFCFFFFDD
:1003F000F0B50C465C4085B0E40FE40703944C0074
:100400000026640859009446490802460296224391
:1004100021D062460A431ED06200570D4A000E03E7
:100420002303550D012402462C492405781B1B0B80
:10043000360B401823432643614600901C46501A51
:10044000B44103D30098401C009002E09218009839
:100450005B41002803DA0020014605B0F0BD002012
:10046000012109050746864611E064461D46141B16
:10047000B54106D36546521BB341744607430C434E
:10048000A646CD0740084908284392185B41054617
:100490000D43EAD11046184313D060461946504028
:1004A0007140084306D06046101AB34106D20122BB
:1004B000002306E000220123DB0702E00122D243F1
:1004C0005310009874460105381C6141029C039D3D
:1004D0000019694100F0C6F8BFE70000FD03000005
:1004E00070B54B005B0803430BD04B005C0D00263E
:1004F00033466542B341D417AD1AA34102DB002055
:10050000014670BD12053018514170BD0EB5C217BD
:10051000C10F5040CA0740180021054B02930192B9
:1005200000910A460B4600F0AAF803B000BD000097
:10053000330400000EB505490291002100910A46DE
:100540000B46019100F09BF803B000BD330400009E
:1005500070B5CD0F4A0009030123090B1B05194390
:100560000B4BED070024520D9A4201DA002070BDBA
:10057000074B34339A4203DC9A1A00F04FF802E03A
:100580000449511888402C43F1D0404270BD00000E
:10059000FF030000CDFBFFFF4A0009030123090B05
:1005A0001B051943094B10B5520D9A4201DA002080
:1005B00010BD064B34339A4203DC9A1A00F02EF831
:1005C00010BD03495118884010BD0000FF03000012
:1005D000CDFBFFFF10B5002904DB0124E4074042F6
:1005E0008C412146002B04DB1C460123DB075242D1
:1005F000A3418B4200D1824210BD000010B5202AD9
:1006000004DB0146203A9140002010BD9140202398
:100610009C1A0346E3401943904010BD10B5202AB0
:1006200004DB0846203AD040002110BD0B46D340E1
:10063000D0402024A21A91400843194610BD10B59D
:10064000202A06DBCB170846203A1041C1170B437E
:1006500006E00B461341D0402024A21A91400843E3
:10066000194610BD10B5002B08DA0024401C61416A
:1006700092185B411A4301D14008400010BDF0B50B
:100680001FB482B005460C0003D0084601F04DFDB2
:1006900002E001F04AFD2030024600902146284643
:1006A000FFF7ACFF049B059A04460F46184311431D
:1006B000084314D0184610431BD0009840210A1A52
:1006C00018460599FFF7AAFF05460E46009A0599B8
:1006D0000498FFF793FF084305D0012004E020466B
:1006E000394607B0F0BD0020C11705430E432C4327
:1006F000374300990E986305401A7905E40A0022F1
:100700000C43FD0A0A3002D500200146E9E7010545
:10071000101969410C9C0D9D00196941FFF7A2FF5A
:10072000DFE70000F8B50546480040080C462843BE
:1007300004D06000184A400D904201DD2846F8BD03
:1007400015493539884210DC88420BDB290D20031E
:1007500008432903014305D0E00F1049C0074118A1
:100760000020F8BD00200146F8BD161A4020821B6B
:1007700028462146FFF742FF0746009128462146BA
:100780003246FFF74BFF3A46009BFFF76BFF3246BE
:10079000FFF734FFF8BD0000330400000000F03F15
:1007A00010B5002904DB0124E40740428C412146B6
:1007B000002B04DB1C460123DB075242A341994274
:1007C00000D1904210BD0000064C0125064E05E008
:1007D000E36807CC2B430C3C98471034B442F7D362
:1007E000FFF76CFC7C2300089C230008704730B5A1
:1007F0000023C40BCD09E401ED01AC4203D0400459
:10080000000C504001E04004000C4906090E5B1C3E
:10081000DBB2082BEDD330BD10B5022000F00CF890
:10082000002802D0022000F001F810BD0149486103
:10083000704700000004014001460020024A52694E
:100840000A4200D00120704700040140F0B50022A8
:100850000325012393400C681C409C422AD10C794B
:10086000012C01D0022C12D1876854002E46A640DC
:10087000B74387604E79A6408468264386608488A3
:100880009C43848084888B7993401C4384800668D1
:1008900053002C469C40A64306600E7907689E4094
:1008A0003E430660C668A643C660CC799C40C368D8
:1008B0001C43C460521C102ACBD3F0BD10B54B07AB
:1008C000DB0E9A40C90889000818016A0F249C4071
:1008D000A1430162016A1143016210BD024600207A
:1008E000128A0A4200D00120704781617047002AB5
:1008F00001D081617047018570470000FEB5002579
:10090000684685710124C47144710471200300900C
:1009100069464448FFF79AFF68468571C47144717F
:10092000022606716003009069463E48FFF78EFF7D
:1009300000220D213B48FFF7C1FF68468571C47155
:1009400044710671E703009769463648FFF77EFF5A
:1009500000220F213348FFF7B1FF68468571C4714B
:1009600044710671A003009069462E48FFF76EFFA0
:1009700000220E212B48FFF7A1FF68468571C47144
:10098000447104710420009069462648FFF75EFF19
:1009900068468571C47144710471009709206946E5
:1009A000C006FFF753FF68468571C4714471057135
:1009B000009409206946C006FFF748FF6846857124
:1009C000C47144710571009609206946C006FFF79D
:1009D0003DFF09203946C006FFF787FF042000903D
:1009E0006846057103214171C67109206946C00638
:1009F000FFF72CFF68468571C47144710571402072
:100A0000009009206946C006FFF720FF68468571FF
:100A1000C47144710571009469460248FFF716FFDE
:100A2000FEBD00000004004803490A680B689B1AD9
:100A30008342FBD370470000B400002010B501F0E2
:100A4000DDFA01F04BFB00F0FDF8FFF757FF00F077
:100A500099F910BDFEE770B501240925E403ED0600
:100A6000002221462846FFF742FF0A20FFF7DCFF5D
:100A7000012221462846FFF73AFF70BD704700006B
:100A8000F8B5304C60688069804750262E4D492764
:100A9000022807D0032840D0042802D1606880686B
:100AA0008047F8BD60682749026927486438904745
:100AB00020880028F5D024496439091820398A7F14
:100AC0001202C97F11436180801EC1B21E480122FB
:100AD000643800F00FF961888842E2D11A48042294
:100AE0001A496438FFF758FB0028DAD1FFF7B3FF43
:100AF0002E706F704E20A8704720E87001220421EC
:100B0000114800F0F7F86080010A29716871606887
:100B1000062142690C489047F8BD2E706F704E2038
:100B2000A8704720E87001220421074800F0E2F88D
:100B30006080010A29716871606806214269024873
:100B40009047F8BDAC000020740200207523000817
:100B500070B5234D686880698047022805D0042855
:100B600002D168688068804770BD68681C49026966
:100B70001C48904728880028F6D01A4909182039BF
:100B80008A7F1202C97F11436980801EC1B201228F
:100B9000144800F0AFF869888842E5D10422124970
:100BA0001048FFF7F9FA0028DED1FFF754FF0D4C8B
:100BB0005020643420704F2060704E20A070472079
:100BC000E07001220421204600F094F86880010AB8
:100BD000217160716868062142692046904770BDA6
:100BE000AC000020100200207023000870470000B5
:100BF000054A002903D05169014351617047516989
:100C0000814351617047000000100240054A0029ED
:100C100003D0D1690143D1617047D1698143D1616A
:100C20007047000000100240054A002903D0916976
:100C30000143916170479169814391617047000060
:100C40000010024010B5272001214004FFF7D0FF1B
:100C500001210448FFF7DAFF01210348FFF7E4FF11
:100C600010BD0000004000100140000003460020BD
:100C700059090B4A00290CD001290CD002290CD0AB
:100C8000516BDA06D20E012393400B4200D00120B3
:100C900070471168F5E7116AF3E7516AF1E7000060
:100CA00000100240012206491206002803D00868FD
:100CB0001043086070470868904308607047000060
:100CC0000010024010B5054A53687B24E403A34397
:100CD0005360536808430343536010BD0010024043
:100CE000034A516889088900014351607047000038
:100CF00000100240F8B506460F4615460024012DA7
:100D000005D00B480090012D03D00A4809E00A489D
:100D1000F8E70A4805E0315D009AFFF768FD641CBA
:100D2000E4B2BC42F7D3012D01D0C04380B2F8BD7C
:100D3000211000000F1D000005800000FFFF0000D3
:100D4000084807490160084941600849816008492D
:100D5000C1600849016108494161084981617047E2
:100D600041130008BC000020591D00084D1E00085A
:100D70006D1E000825130008311E0008A51C000880
:100D80007047000010B586B000206A469080FF21B1
:100D90000531D18007210902118190815081012103
:100DA0004902D18110211182508207209082074C84
:100DB00001A9204600F01EF8A114204600F046F8D4
:100DC0000121204600F004F806B010BD00380040B4
:100DD0004022002903D00188114301807047018817
:100DE0009143018070470246002012890A4200D0D8
:100DF0000120704730B50388C122920113400A8850
:100E0000CC890D892243CC882C4322434C89224330
:100E10008C8922431A4302808288094B1A408B88AE
:100E2000134383800A8A0282028804239A434988F2
:100E300011430180818B034A1140818330BD000042
:100E4000FFF00000FFF70000007B70478288034B33
:100E50001A40828082880A4382807047FFEF000038
:100E6000017370477047000010B50C48C06920300E
:100E7000C1794B075B0F5B1C017CCC094A07920FC1
:100E800001D0012200E00022807CC906C90F490080
:100E90001B199A181018401880B210BD18000020B5
:100EA00010B5054A53890B80002353810A880349F2
:100EB000FFF74EF910BD0000180000204801002087
:100EC000F8B50126D94F01243846C0697A78014621
:100ED000D74D4031130001F03FF90C5307549DF5F5
:100EE000F4F3F2F1F0EFEE532030007CC00602D5AF
:100EF0004C20087001E00C200870E12048700222AC
:100F0000402000F0C9FF052000F0D6F96421C84850
:100F1000FFF737F9C54838304068FFF70BFB044648
:100F20000D46FFF7A1FFFFF705FB0322FFF7D8FAF5
:100F300022462B46FFF75CFA0022BE4BFFF7F0F982
:100F400001F062F90022BC4BFFF736F9FFF724FBF2
:100F500080B24108081838627862B8480068386181
:100F60007861F869A02120304175352000F08EFFAE
:100F70000020B870F870387178717881022078702C
:100F800052E100F0DFFE012806D1B878002803D135
:100F9000BC70AA480068786100F0C4FE012816D130
:100FA000B878002813D0F878002810D1FC7000F031
:100FB00061F97963386300F043F9B86200F06EF9C3
:100FC000F8719E4800683861786103207870B878BD
:100FD000F97888430ED0994800687969401A796A8F
:100FE000884207D97C70F869417B202001430D209D
:100FF00000F04CFFF878B978084339790843BFD13D
:101000008E4800683969401A396A8842B8D9052083
:10101000787009E17889642802D90620787003E1A4
:1010200000F079FE01282CD17889797908430CD118
:10103000F8692030017CC90905D07C4801210A30BB
:1010400000F082FE01E0807C7881798978790A1A43
:10105000F9692031497D8906890E8A420BDD2818FD
:1010600000F072FEF86979792030407D8006800EAC
:101070004018787105E0D1B2281800F065FEB87A02
:10108000787100F041FE012811D16C480068386188
:10109000798978790A46024315D0091AC9B2281805
:1010A00000F052FEB87A78713C710420787038797B
:1010B000002822D0B8E0B4E0AFE07FE05AE043E09F
:1010C00036E029E023E0F8692030017CC90905D029
:1010D000564801210A3000F037FE01E0807C78811B
:1010E000B97A7879091AC9B2281800F02DFEB87AB1
:1010F00078713C7104207870D9E7504800683969EC
:10110000401A396A884201D9052078708CE00020A5
:1011100078717C70022687E0002179717981417BAA
:10112000202001430D2000F0B1FE7C7003267BE0FF
:10113000002179717981417B202001430D2000F04D
:10114000A5FE7C7006266FE00C70202048700222FD
:10115000402000F0A1FEF86998212030417535202B
:1011600000F094FE032000F0A7F80820787000201B
:10117000B87159E000F0DEFD012855D1F869203042
:10118000007CC00904D0294801210C3000F0A2FEE7
:10119000B889411E3F2901D8387001E020203870FD
:1011A0003978234800F096FEB87939784018B8713C
:1011B00022480068B8610920787035E000F0ABFD86
:1011C000002813D1B989B8790A1A39788A4207DD1B
:1011D000281800F07FFEB87939784018B87105E01A
:1011E000D1B2281800F076FE387BB87100F08CFD83
:1011F000012807D111480068B8610A2078700120E1
:1012000000F05AF80D480068B969401A7D21C900FC
:10121000884209D90B20787006E0002078700426F7
:1012200002E00020787005263046F8BD1800002046
:101230004801002000408F400000F03FB400002033
:1012400010B50A4C0222E1691B201B3100F03EFD63
:10125000E169C87E097F00020843FFF76BF90022AD
:10126000034BFFF75DF8FFF773F910BD180000207E
:1012700080844E4010B5074C1120E169113100F017
:101280001FFDE069407CFFF755F90022024BFFF794
:1012900047F810BD180000200000E0BF10B5054C55
:1012A0000C20E1690C3100F00BFDE069007B400986
:1012B00010BD00001800002070B5044600200D4D40
:1012C000E96949784907490F29728C4211D0032CEA
:1012D00000D10120697A884202D0687200F001FED4
:1012E000E8694178C908C90021434170012000F034
:1012F000CDFD70BD18000020014948707047000006
:101300001800002010B5054CA1810A46014604488A
:10131000FEF71EFF0720607010BD000018000020BF
:101320004801002010B5054A1278002A02D000F0CA
:101330002DF810BDFFF7B4FD10BD00001400002013
:1013400010B50F480D4C04600E4804607021204613
:10135000FEF717FF6B212046FEF713FF00F0FCFCA1
:10136000012000F039FB08490120087000224A7072
:1013700000F006FD00F01CF810BD0000D8000020B1
:1013800034000020800000201400002010B5064B1F
:101390000024DA88642A00D9DC80DA880A80DC80BC
:1013A0000249FEF7D5FE10BD70000020AC01002000
:1013B00070B5264C0020207000F0A6FA244D6F2254
:1013C000691C012000F082FC2169202008736F2233
:1013D000691C012000F060FD2034206800F07EFBD5
:1013E000A07900F00BFCE07900F098FA207A00F088
:1013F00049FB607900F0E8FB607A00F0A9FA154833
:1014000000F026FC207E00F057FB012000F0B8FA27
:101410001149206888420AD9002000F0FDFA002016
:1014200000F00EFB0E20207100F076FB09E080201A
:1014300000F0F2FA012000F003FB1420207100F00C
:101440006BFB012000F0C8FA70BD000070000020A6
:10145000D8000020FF030000008F4233F8B50124BC
:10146000FD4E0025307837462037030000F074FE2B
:101470000B070B59A1EFEEEDEC0AEBEA0A00002096
:1014800000F0AAFA28E2012000F0A6FA30699D21B6
:101490004174112000F0FAFCF87A01282CD0306950
:1014A000FF2120300171306920300179242000F0C3
:1014B000EDFC3169084620304577402282770222D0
:1014C0003D31402000F0E8FCB87A012825D0306991
:1014D000C17B41730D2000F0D9FC052000F07CFA9F
:1014E0006421DE48FEF74DFE78697061DC480068D3
:1014F000F06002203070EFE13169387B24225054D3
:101500001C311C2000F0DCFB3069007F8006010EDE
:10151000D448405800F0E2FAC5E7062000F05CFA33
:10152000DEE700F0F1FB012818D1CD480068F0603B
:10153000F87A01280CD131691C201C3100F0C0FB65
:101540003069007F8006010EC648405800F0C6FA98
:101550004021122000F09AFC0320307000F0E2FBE2
:10156000012819D1BE480068F060F87A01280CD132
:1015700031691C201C3100F0A3FB3069007F80061C
:10158000010EB848405800F0A9FA0221122000F0DC
:101590007DFC00F0ABF97070B87A0128ABD1B0488F
:1015A0000068F168401A71698842A4D9042030703B
:1015B00092E131691220123100F082FB3069807CA7
:1015C00080060CD52021122000F060FCB87A01289A
:1015D00002D0022030707FE1012030707CE169464A
:1015E000192000F06DFB68460078010606D5C0435F
:1015F000401C0006800E4042307101E080083071CE
:1016000031691A201A3100F05BFB97493868974C12
:10161000974D88422BD204203056002818DAFEF766
:1016200075FF044630690D46807EFEF783FF002279
:10163000904BFEF7C1FD22462B46FEF7BDFDF16142
:10164000B06139E03AE11FE118E1E1E08CE087E0C8
:101650003069807EFEF76EFF22462B46FEF760FE65
:101660000022844BFEF7A8FDF161B06124E0042064
:101670003056002812DAFEF749FF044630690D465D
:10168000807EFEF757FF00227B4BFEF795FD22463A
:101690002B46FEF791FDF161B0610DE03069807E6F
:1016A000FEF748FF22462B46FEF73AFE0022724B19
:1016B000FEF782FDF161B061B87A012820D031696E
:1016C0001020103100F0FCFA787A012835D0316909
:1016D0001320133100F0F4FA3069C17CF180017CF1
:1016E00041730D2000F0D2FB3069C17C5B4800F0F3
:1016F0002BFBB87A012830D0022030700224EBE0B6
:101700003069C17B41730D2000F0C0FB787A01285D
:101710000BD031691320133100F0D2FA3069C17C4B
:10172000F1804E4800F010FBE3E73069203081780B
:10173000F1804A4800F008FBDBE730692221095CB0
:10174000F180017C41730D2000F0A0FB3069203056
:101750008178424800F0F8FACBE701203070CDE7FD
:10176000012030700324B7E0012000F035F9F87A49
:1017700001283AD03069F721417420300571306971
:1017800020300179242000F081FB3069417C112058
:1017900000F07CFB3069317A20308170222000F02B
:1017A00075FB3069857329460E2000F06FFB3069A8
:1017B000817B41730D2000F069FB30692030817816
:1017C000264800F087FB31694122084620314A77DC
:1017D0008D77014602223D31402000F05DFB032061
:1017E00000F0FAF80620307076E03169F520487490
:1017F0003A7B242042541C311C2000F061FA3069ED
:10180000007F8006010E1748405800F067F9B6E7E0
:1018100000F07AFA012805D10821122000F036FBE9
:101820000720307000F07EFA012855D1F87A01289F
:101830000CD131691C201C3100F042FA3069007F64
:101840008006010E0748405800F048F90221122096
:1018500000F01CFB40E0000070000020AC01002004
:10186000B4000020A4220008008F42331B9E5E2992
:10187000CB10F13F008064C000A063C0012000F0E5
:10188000ABF83570042427E0012000F0A5F830699A
:10189000FA214174112000F0F9FA316920228818E8
:1018A00042774022827702223D31402000F0F4FA54
:1018B000072000F091F80A2030700DE000F03AFAAD
:1018C000012809D10421122000F0E0FA00F023FAE7
:1018D000012803D0357007242046F8BD01211220CD
:1018E00000F0D4FA012030700824F5E710B5054C5B
:1018F0000C2021690C3100F0E3F92069007B4009DC
:1019000010BD00007000002010B50348016942209E
:101910003F3100F0D5F910BD7000002070B50446CD
:10192000094D1D2029681D3100F0CAF92A68F121EE
:10193000507F084061000843C1B251771D2000F07C
:10194000A5FA0248C47170BD8000002090000020FC
:1019500070B50446084D1D2029681D3100F0B0F90E
:101960002A68507F41084900214351771D2000F02B
:101970008DFA0248447270BD800000209000002063
:1019800070B50446084D26202968263100F098F9E4
:101990002A68F720203291790140E00001439171DB
:1019A000262000F073FA70BD8000002070B5044658
:1019B000084D31202968303100F082F92A68203240
:1019C000107CC108C90021431174312000F05EFA77
:1019D00070BD00008000002070B5044600200D4D51
:1019E000296949784907490FA9708C4211D0032C05
:1019F00000D10120E978884202D0E87000F071FA45
:101A000028694178C908C90021434170012000F0CC
:101A10003DFA70BD7000002070B50446074D0920E6
:101A20002968093100F04CF92A68507A4106490EBC
:101A300021435172092000F029FA70BD8000002076
:101A400070B505460E4C4D202168493100F038F93B
:101A500021680920093100F033F92168487AC0096A
:101A600005D0002D06D087224920425402E084226E
:101A7000492042544031497A4D2000F007FA70BDA8
:101A80008000002070B50446094D1E2029681E31D3
:101A900000F016F92A68FB20917F0140A000014365
:101AA00091771E2000F0F2F90248047270BD000028
:101AB000800000209000002010B504460549204613
:101AC000096820318C700146222000F0DFF90248BD
:101AD000047610BD800000209000002010B50B4956
:101AE0000860FEF727FD0022094BFEF781FCFEF798
:101AF00053FD0849020C09688A71020ACA7108720A
:101B00000322891D062000F0C7F910BD90000020B7
:101B100080844E408000002070B50446254D092089
:101B20002968093100F0CCF829684D20493100F0CE
:101B3000C7F828687022417ACB09002B22D04923AC
:101B40001D5C8723AB430ED0022C00DA0224112C3B
:101B500000DD112411430909A21E09011207120F09
:101B6000114341721EE0052C00DA0524142C00DD1F
:101B7000142411430909621F09011207120F1143AE
:101B800041720FE00023DB439C4200DA1C460E2C1E
:101B900000DD0E2411430909621C09011207120F0E
:101BA00011434172417A092000F070F90248047132
:101BB00070BD0000800000209000002001490870E6
:101BC000704700007000002070B50446094D1D20CC
:101BD00029681D3100F074F82A68507F0007000F53
:101BE00021010843C1B251771D2000F04FF902488E
:101BF000447170BD800000209000002070B5044644
:101C00000C2C01D90C2402E0062C00D20624062C50
:101C100016D00320FFF7CAFE0B4D1E2029681E3187
:101C200000F04EF82868817F0907090F220111434F
:101C3000C9B281771E2000F029F90448847170BD73
:101C40000520FFF7B3FEE7E78000002090000020AA
:101C500070B504460A4D022229681E201E3100F08C
:101C600035F82968A205887F80088000920F10430C
:101C70008877CC7702221E311E2000F00DF970BD4E
:101C80008000002010B5054C21810A460146044819
:101C9000FEF75EFA0520207010BD000070000020E5
:101CA000AC01002010B505480078002802D0FFF7ED
:101CB000D5FB10BDFFF704F910BD00001400002093
:101CC00010B5012200F002F810BD0000F7B515466E
:101CD0004406640E01260A4F360300223146384678
:101CE000FEF705FE2146074800F04AF9284601990B
:101CF00000F05EF9012231463846FEF7F8FDFEBDE0
:101D0000000400480038004010B509200121C00639
:101D1000FEF7E4FD10BD10B509200221C006FEF754
:101D2000DDFD10BD10B509204021C006FEF7D6FD2F
:101D300010BD000010B501210148FEF7CFFD10BD18
:101D4000000400480020704710B50A4601460020F4
:101D5000FFF7BCFF10BD000010B5012000F056F8E1
:101D6000064C206821688142FCD0002000F04EF82B
:101D700020682168091A0629FBD310BDB400002091
:101D800070B51F494A78824224D0487008701D4DB2
:101D90001D4C00281FD00020FFF71EFE286880225F
:101DA000417811434170012000F070F80120FFF7E5
:101DB00013FE29680022084620314A778A770146B7
:101DC00002223D31402000F067F86F22611C0120A3
:101DD000FFF77CFF70BD0020FFF7FEFD286841780B
:101DE0004906490E4170012000F050F80120FFF72C
:101DF000F3FD6F22611C0120FFF768FF70BD00003A
:101E00001400002080000020D800002010B5074BEF
:101E1000012805D0012204211846FEF768FD10BDF7
:101E2000002204211846FEF762FD10BD00040048A0
:101E300010B5054A1278002A02D0FFF723FF10BD23
:101E4000FFF760FA10BD00001400002010B506482E
:101E50000078002803D00120FFF7B0FE10BD01205C
:101E6000FFF74AFA10BD00001400002010B5064824
:101E70000078002803D00520FFF7A0FE10BD072042
:101E8000FFF73AFA10BD00001400002013B501223C
:101E900001A900F001F81CBDF7B5154680210843E3
:101EA00004460A4F4E01002231463846FEF71FFD18
:101EB0002146074800F064F82846019900F08CF8A4
:101EC000012231463846FEF712FDFEBD00040048EF
:101ED0000038004010B50A4601460020FFF7DCFF3D
:101EE00010BD70471CB50023019300932248016880
:101EF00001221204114301605100052424030268E9
:101F00000A400092019A521C0192009A002A02D1C2
:101F1000019AA242F3D10168890302D501210091FF
:101F200000E000930099012925D1144911220A608B
:101F3000416841604168416041687F22D20391431A
:101F4000416041681122120411434160016801227D
:101F500012061143016001688901FCD541688908B6
:101F600089004160416802221143416041680907CC
:101F7000890F0229FAD11CBD001002400020024046
:101F800070B504460D4602212046FEF72CFF0028BE
:101F9000F9D029462046FEF763FF01212046FEF7CF
:101FA00022FF0028F9D02046FEF74EFF70BD00004A
:101FB000F8B506460D460024064F07E0FF213846D7
:101FC000FFF7DEFF28706D1C641CE4B2B442F5D349
:101FD000F8BD000000380040F8B505460E46002464
:101FE000054F05E0315D3846FFF7CAFF641CE4B2D7
:101FF000AC42F7D3F8BD00000038004010B5002017
:10200000FEF750FE0521C9040020FEF75BFE01200B
:10201000FEF748FE1920FEF729FE0028FAD002201C
:10202000FEF75EFE10BD000003480168491C016018
:102030004168491C41607047B400002010B5144845
:1020400001680122114301604168124A1140416058
:102050000168114A11400160016801229204914314
:10206000016041683F22120491434160C16A09093D
:102070000901C162016BFF22543291430163416B3C
:1020800049084900416300218160FFF72BFF10BD23
:10209000001002400CB8FF08FFFFF6FE10B5064C1A
:1020A0000121204600F00DF8002803D00121204630
:1020B00000F004F810BD000000200040C943018278
:1020C000704702460020138A0B4092890A40002B79
:1020D00002D0002A00D001207047000010B50E4841
:1020E0007D21C9000068FEF71DF80C49401E88429A
:1020F00001D901200CE00A4948610A480722C36956
:102100001B021B0A4C042343C361002088610A613F
:10211000002800D0FEE710BD00000020FFFFFF00F8
:1021200000E000E004ED00E070472021020C01D047
:1021300010211046020A01D010460839020901D0C8
:102140001046091F820801D01046891E420801D09E
:10215000881E7047081A704730B47446641E25788C
:10216000641CAB4200D21D46635D5B00E31830BCCB
:10217000184702E008C8121F08C1002AFAD17047A8
:102180007047002001E001C1121F002AFBD17047F7
:10219000FEF754FCFEF7D4FD194D686000688047D7
:1021A0000926F60604213046FEF798FB002817D0D2
:1021B000144C50202070492060704E20A0704720A1
:1021C000E070012204212046FEF794FD6880010A98
:1021D000217160716868062142692046904708E0D5
:1021E00068688068804704E0FEF74AFC01E0FEF77B
:1021F000AFFC04213046FEF771FB0028F7D0F3E76F
:10220000AC00002074020020F0B513B4064601991A
:10221000FEF788FA04460D4602460B463046019901
:10222000FEF76FF8064601981B4B0F4600280CDAA4
:1022300000223046FEF7CEF90CD90022174B30466B
:102240003946FEF7ADFA1DD214E000223046FEF703
:10225000C1F908D20022124B20462946FEF751F858
:1022600004460D460EE000220C4B30463946FEF780
:1022700097FA07D800220A4B20462946FDF79CFF13
:1022800004460D46019A69004908D20FD20720463C
:10229000114303B0F0BD00000000E0BF0000E03FCC
:1022A0000000F03F20AEA036E07D0B37A0170836C7
:1022B00060F0AF3660F0AF36403D2E36C0AFD2355D
:1022C000000D993620A5633680A33137406122374F
:1022D00060DE353640466B36A032BF36A032BF36A0
:1022E000A00ECB35E0625436A0443937A00ECB3572
:1022F000809AF436001F1337E050DA3540466B36CB
:10230000809AF43680A33137807F3D360016D6366A
:10231000A03BFC36C0C14C36809AF43660DE3536C0
:1023200080A33137809AF4368091B73660022A371D
:1023300000FB1E3660F0AF36A0443937209C2636AD
:10234000000D993660D5F835000D9936C0AFD235FD
:102350004034F135C0CA893640466B36C0B80F36B6
:10236000807F3D36A044393760022A37C0C14C36E1
:1023700050494E4700504F4E470000009C23000834
:1023800000000020BC000000722100085824000852
:10239000BC0000201C06000082210008006CDC024A
:1023A0000000000000000000010203040607080905
:1023B00000000000200000000000000101010000FA
:1023C000000000000000000000000000000000000D
:1023D00000000000000000000000000000000000FD
:1023E0000000000000000000000000008050DE1926
:1023F000B0040000102700001400000010270000A7
:10240000F04902000100FF0000000000000101018E
:1024100000000000000000000000000000000000BC
:102420000000000000000000000000008050DE19E5
:1024300014090C020100010004000000E803000080
:10244000E803000080000000000000000000000021
:08245000000000000000000084
:04000005080000B53A
:00000001FF
